:020000040800F2
:1000000000200020E115000841080008430800080E
:1000100045080008470800084908000800000000DB
:100020000000000000000000000000004B08000875
:100030004D080008000000004F08000851080008A3
:100040002916000829160008291600082916000894
:100050002916000829160008291600082916000884
:100060002916000829160008291600082916000874
:100070002916000829160008291600082916000864
:10008000291600082916000829160008000000009B
:100090000000000000000000000000002916000819
:1000A0002916000829160008291600082916000834
:1000B0002916000829160008291600082916000824
:1000C00029160008000000000000000029160008A2
:1000D0002916000829160008291600082916000804
:1000E000291600082916000829160008000000003B
:1000F0000000000000000000000000000000000000
:1001000000000000000000000000000000000000EF
:100110000000000000000000291600082916000851
:1001200000000000000000000000000000000000CF
:1001300000000000000000000000000000000000BF
:1001400000000000000000000000000000000000AF
:10015000000000000000000000000000000000009F
:10016000000000000000000000000000000000008F
:10017000000000000000000000000000000000007F
:10018000000000000000000000000000000000006F
:10019000000000000000000000000000000000005F
:1001A000000000000000000000000000000000004F
:1001B000000000000000000000000000000000003F
:1001C0000000000000000000000000005FF808F1DF
:1001D0000348044B834202D0034B03B118477047D6
:1001E0000C0000200C000020000000000548064B19
:1001F0001B1AD90F01EBA301491002D0034B03B125
:10020000184770470C0000200C0000200000000080
:1002100010B5064C237843B9FFF7DAFF044B13B14E
:100220000448AFF300800123237010BD0C000020B0
:10023000000000002C16000808B5044B1BB104494F
:100240000448AFF30080BDE80840CFE7000000009D
:10025000100000202C16000870B50F4B0F4DAB425C
:10026000A3EB050607D00024B61055F8043B013473
:100270009847A642F9D801F0D9F9094D094B5E1B00
:10028000AB424FEAA60606D0002455F8043B0134E1
:100290009847A642F9D870BDE8160008E81600088D
:1002A000E8160008EC16000870B5860747D0541E03
:1002B000002A3ED00346CAB201E0013C39D303F81C
:1002C000012B9D07F9D1032C2CD9CDB205EB0525C7
:1002D0000F2C1A4605EB054534D9A4F1100C2CF06F
:1002E0000F0603F1100EB6444FEA1C1CC2E900557C
:1002F000C2E9025510327245F8D10CF1010214F036
:100300000C0F03EB021204F00F0C13D0ACF104033A
:1003100023F003030433134442F8045B9342FBD1FC
:100320000CF003042CB1C9B21C4403F8011BA34216
:10033000FBD170BD64461346002CF4D1F9E70346A7
:100340001446C0E7A446E1E72DE9F04389B0002454
:100350000494059406940794284B9A6942F0040289
:100360009A619A6902F004020192019A9A6942F034
:1003700010029A619A6902F010020292029A9A6936
:1003800042F008029A619B6903F008030393039B00
:10039000DFF86C9022468021484601F0AFF8DFF884
:1003A000648022464FF40071404601F0A7F8164FD2
:1003B00022464021384601F0A1F88023049301260B
:1003C000059606940225079504A9484600F088FF83
:1003D0004FF40073049305960694079504A94046CC
:1003E00000F07EFF4023049305960694079504A928
:1003F000384600F075FF09B0BDE8F08300100240F8
:100400000010014000080140000C014072B6FEE7F8
:1004100008B50D480D4B03604FF482734360002311
:100420008360C360036143614FF400728261C36102
:100430000362436283620A23C36200F0EFFA00B9E9
:1004400008BDFFF7E3FF00BF280000200030014097
:1004500000B591B02822002106A8FFF725FF002350
:1004600001930293039304930593022306930123BC
:100470000A9310230B9306A800F076FC68B90F23AB
:1004800001930021029103910491059101A800F0CC
:100490009DFE20B911B05DF804FBFFF7B7FFFFF731
:1004A000B5FF08B500F018FCFFF7D2FFFFF74CFFCF
:1004B000FFF7AEFF002000F047F94FF4FC6000F0BA
:1004C0000FF8FEE710B582B0BDF8104000949BB263
:1004D00092B289B280B200F05BF902B010BD0000A8
:1004E00000B583B00090064BB3F90030054AB2F96D
:1004F000002000210846FFF7E5FF03B05DF804FB8C
:10050000860000208800002008B500224021024813
:1005100000F0F4FF08BD00BF000C014008B5012247
:100520004021024800F0EAFF08BD00BF000C014076
:1005300010B5074C00228021204600F0DFFF052087
:1005400000F0E8FB01228021204600F0D7FF10BD1B
:100550000010014000B583B08DF8070000224FF471
:100560000071074800F0CAFF4FF0FF3301220DF180
:100570000701044800F0A8FA03B05DF804FB00BFCF
:10058000000801402800002038B504460D4601222D
:100590004FF40071054800F0B1FF4FF0FF33AAB2ED
:1005A0002146034800F090FA38BD00BF0008014022
:1005B00028000020F8B5064616F8012B09E0394658
:1005C0002046FFF7E1FF3C440FE000F0A3FB2A4682
:1005D0002646531EDDB292B1344614F8020BFFF7E3
:1005E000B9FF767816F07F07E9D116F0800FEED0CC
:1005F00014F8010BFF28E8D14FF4FA70E5E7F8BDD5
:10060000F0B583B005460C4617461E462A20FFF774
:10061000A1FF00238DF80430114A11780D448DF8A4
:1006200005508DF8063039448DF8071004210DEB84
:100630000100FFF7A9FF2B20FFF78CFF094B1A7869
:1006400014448DF8054032448DF8072004210DEB49
:100650000100FFF799FF2C20FFF77CFF03B0F0BDEE
:10066000810000208000002000B583B000238DF8B9
:10067000073000F003002D4B1870032814D8DFE872
:1006800000F002223342C0238DF80730284BA0220D
:100690001A80284B80221A80274B1A78274B1A7011
:1006A000274B1A78274B1A70FFF72EFF3620FFF7DB
:1006B00051FF01210DF10700FFF766FFFFF72EFF45
:1006C00003B05DF804FBA0238DF80730194A1380AE
:1006D000174B80221A80184B1A781A4B1A70184B35
:1006E0001A78164B1A70DFE7114BA0221A80114BB3
:1006F00080221A80104B1A78104B1A70104B1A78FF
:10070000104B1A70D0E760238DF80730094BA022F8
:100710001A80074B80221A80074B1A78094B1A70EF
:10072000074B1A78054B1A70BEE700BF8400002003
:100730008600002088000020830000208100002027
:10074000820000208000002010B50446FFF7DCFE88
:10075000FFF7EEFE0948FFF72DFF0948FFF72AFFD4
:100760000848FFF727FF0023074A1370074A137052
:100770002046FFF779FFFFF7D1FE10BD8016000875
:100780007016000844160008830000208200002034
:100790002DE9F04182B01D46BDF82080244BB3F90D
:1007A0000030984240DA04460F461646214AB2F914
:1007B0000020914238DA31188B4202DA9BB21B1AC0
:1007C0009EB2EB199A4202DA93B2DB1B9DB2FFF79D
:1007D0009BFEE0B2F9B28219D2B24B19DBB2013BF7
:1007E000013ADBB2D2B2FFF70BFF4FEA18238DF8C4
:1007F00004308DF8058001224FF400710E4800F09E
:100800007DFE0CE04FF0FF33022201A90B4800F0FF
:100810005BF9013CA4B2002CF4D1013DADB20DB1A5
:100820003446F8E7FFF77AFE02B0BDE8F08100BF7A
:1008300088000020860000200008014028000020D9
:10084000FEE7FEE7FEE7FEE7FEE77047704770470A
:1008500008B500F04DFA08BD82B00E4B9A6942F01F
:1008600001029A619A6902F001020092009ADA6923
:1008700042F08052DA61DB6903F080530193019BFF
:10088000054A536823F0E06343F00073536002B0FD
:10089000704700BF001002400000014010B586B054
:1008A000002302930393049305930268164B9A4224
:1008B00001D006B010BD03F560439A6942F480523E
:1008C0009A619A6902F480520092009A9A6942F001
:1008D00004029A619B6903F004030193019BA02326
:1008E00002930223039303230593084C02A9204695
:1008F00000F0F6FC4023029300230393049302A923
:10090000204600F0EDFCD4E7003001400008014033
:100910002DE9F04782B00546884617461E4600F08E
:10092000F3F90A9B1B1A03EB060900F0EDF9824666
:10093000284B1B68C3F3CB3309FB03F301932B68EC
:100940009C6838EA04040CBF01230023BB423DD05D
:10095000B6F1FF3FF3D000F0D7F9A0EB0A0048450D
:1009600007D2019A02B14A46019B013B019391468D
:10097000E5E72A68536823F0E00353606B68B3F53A
:10098000827F0BD0AB6AB3F5005F14D0012385F8EA
:100990005130002385F85030032018E0AB68B3F5E0
:1009A000004F02D0B3F5806FECD12A68136823F0B2
:1009B00040031360E6E72A68136823F400531360CA
:1009C0002A68136843F400531360DFE7002002B085
:1009D000BDE8F0870800002070B582B006460C46DE
:1009E000154600920B4601220221FFF791FF48B9FC
:1009F00000952346002280213046FFF789FF38B951
:100A000002B070BD736D43F0200373650320F7E7F8
:100A1000736D43F0200373650320F1E7002851D084
:100A200010B50446436A33B94368B3F5827F05D0F5
:100A30000023C36102E00023036143610023A3623A
:100A400094F85130002B37D0022384F851302268BB
:100A5000136823F040031360636803F48273A26891
:100A600002F404421343E26802F400621343226971
:100A700002F002021343626902F001021343A26909
:100A800002F400721343E26902F038021343226A4F
:100A900002F080021343A26A02F400522168134359
:100AA0000B60638B226803F00403536000206065D1
:100AB000012384F8513010BD84F850302046FFF7F0
:100AC000EDFEC1E7012070472DE9F04383B00446F5
:100AD000894690461D4600F017F994F85160F6B229
:100AE000012E40F0CC800746B9F1000F00F0C8801D
:100AF000B8F1000F00F0C48094F85030012B00F0E2
:100B0000C380012384F85030032384F8513000233C
:100B10006365C4F83090A4F83480A4F83680A363E9
:100B2000A387E38763642364A368B3F5004F1ED0F3
:100B300023681A6812F0400F03D11A6842F040028D
:100B40001A60E368B3F5006F1CD0636813B1B8F1A5
:100B5000010F5FD1226B236812781A73236B013364
:100B60002363E38E9BB2013B9BB2E38652E0226893
:100B7000136823F0400313602268136843F4804332
:100B80001360D5E7636813B1B8F1010F15D1226B7B
:100B900023681288DA60236B02332363E38E9BB2EF
:100BA000013B9BB2E38608E000F0AEF8C01BA84210
:100BB00002D3B5F1FF3F15D1A5B1E38E9BB2002B57
:100BC00042D023689A6812F0020FEDD0226B12888F
:100BD000DA60236B02332363E38E9BB2013B9BB24B
:100BE000E386EAE7012384F85130002384F850308B
:100BF000032645E0226B12781A73236B01332363BB
:100C0000B4F836C01FFA8CFC0CF1FF3C1FFA8CFCC8
:100C1000A4F836C0E38E9BB2B3B123689A6812F091
:100C2000020FE7D100F070F8C01BA84202D3B5F163
:100C3000FF3F01D1002DEDD1012384F85130002375
:100C400084F8503003261BE03A4629462046FFF739
:100C5000C3FE08B120236365A36833B901932368F9
:100C6000DA6801929B680193019B012384F851305B
:100C7000002384F85030636D13B9002600E002268B
:100C8000304603B0BDE8F0830226F9E710B504460C
:100C90000E4B1A784FF47A73B3FBF2F30C4A1068D8
:100CA000B0FBF3F000F086FC68B90F2C01D90120ED
:100CB0000AE0002221464FF0FF3000F06BFC054BAC
:100CC0001C60002000E0012010BD00BF00000020DB
:100CD000080000200400002008B5032000F048FCB4
:100CE0000F20FFF7D3FFFFF7B7FD002008BD00007E
:100CF000034A1168034B1B780B441360704700BF15
:100D00008C00002000000020014B1868704700BFD5
:100D10008C00002038B50446FFF7F6FF0546B4F115
:100D2000FF3F02D0044B1B781C44FFF7EDFF401B34
:100D3000A042FAD338BD00BF0000002082B0084BAB
:100D40001B68084AA2FB03235B0A00FB03F3019321
:100D500000BF019B5A1E0192002BF9D102B07047CF
:100D600008000020D34D6210002800F0F18170B51A
:100D700082B00446036813F0010F2CD0994B5B68D6
:100D800003F00C03042B1DD0964B5B6803F00C039F
:100D9000082B12D06368B3F5803F41D0002B55D1AA
:100DA00003F1804303F504331A6822F480321A6099
:100DB0001A6822F480221A6037E08A4B5B6813F4C9
:100DC000803FE7D0874B1B6813F4003F03D0636874
:100DD000002B00F0BF81236813F0020F75D0814B08
:100DE0005B6813F00C0F5FD07E4B5B6803F00C0365
:100DF000082B54D02369002B00F08A807A4B012203
:100E00001A60FFF781FF0546764B1B6813F0020F4F
:100E100075D1FFF779FF401B0228F5D903209EE129
:100E2000704A136843F480331360636843B3FFF779
:100E30006BFF05466B4B1B6813F4003FCBD1FFF7EC
:100E400063FF401B6428F5D9032088E1B3F5A02F88
:100E500009D0644B1A6822F480321A601A6822F4AE
:100E600080221A60E1E703F18043A3F53C331A685E
:100E700042F480221A601A6842F480321A60D4E781
:100E8000FFF742FF0546574B1B6813F4003FA2D003
:100E9000FFF73AFF401B6428F5D903205FE1514B6F
:100EA0005B6813F4803FA5D14E4B1B6813F0020F13
:100EB00003D02369012B40F04F814A4A136823F085
:100EC000F803616943EAC1031360236813F0080F54
:100ED00033D0A369002B5CD0434B0122C3F880249C
:100EE000FFF712FF05463F4B5B6A13F0020F21D15B
:100EF000FFF70AFF401B0228F5D903202FE1394AEA
:100F0000136823F0F803616943EAC1031360DCE767
:100F1000354B00221A60FFF7F7FE0546314B1B6880
:100F200013F0020FD1D0FFF7EFFE401B0228F5D9D6
:100F3000032014E10120FFF701FF236813F0040FE1
:100F400000F09680274BDB6913F0805F34D1254B8E
:100F5000DA6942F08052DA61DB6903F08053019371
:100F6000019B0125214B1B6813F4807F26D0E36889
:100F7000012B3DD0002B53D103F1804303F5043303
:100F80001A6A22F001021A621A6A22F004021A6234
:100F900033E0154B0022C3F88024FFF7B5FE054669
:100FA000104B5B6A13F0020FC7D0FFF7ADFE401B7A
:100FB0000228F5D90320D2E00025D3E70B4A1368B5
:100FC00043F480731360FFF79FFE0646074B1B68D0
:100FD00013F4807FCBD1FFF797FE801B6428F5D9EF
:100FE0000320BCE0001002400000424200700040BC
:100FF0005F4A136A43F001031362E36833B3FFF7F8
:1010000083FE06465A4B1B6A13F0020F2FD1FFF7DF
:101010007BFE801B41F288339842F3D903209EE087
:10102000052B09D0524B1A6A22F001021A621A6A81
:1010300022F004021A62E0E74D4B1A6A42F0040201
:101040001A621A6A42F001021A62D6E7FFF75CFEE2
:101050000646474B1B6A13F0020F08D0FFF754FEF9
:10106000801B41F288339842F3D9032077E0E5B939
:10107000E369002B72D03E4A526802F00C02082A43
:1010800056D0022B17D03B4B00221A66FFF73CFECE
:101090000446374B1B6813F0007F47D0FFF734FE40
:1010A000001B0228F5D9032059E0314AD36923F007
:1010B0008053D361DCE72F4B00221A66FFF724FE32
:1010C00005462B4B1B6813F0007F06D0FFF71CFE74
:1010D000401B0228F5D9032041E0236AB3F5803F85
:1010E0001AD023494B6823F47413226A606A0243BE
:1010F00013434B601F4B01221A66FFF705FE04469F
:101100001B4B1B6813F0007F0ED1FFF7FDFD001B8A
:101110000228F5D9032022E0154AD36A23F00F03F1
:10112000A1680B43D362DCE7002018E0002016E042
:10113000012B16D00E4B5B6803F48031226A91427A
:1011400011D103F47013626A93420ED1002006E0BD
:1011500001207047012002E0012000E0002002B0E1
:1011600070BD0120FBE70120F9E70120F7E700BF90
:1011700000100240000042420F4B5B6803F00C027B
:10118000082A01D00D487047C3F383420C49885C9C
:1011900013F4803F0BD0084BDB6A03F00F03094ABE
:1011A000D35C064A02FB00F0B0FBF3F07047064B3D
:1011B00003FB00F0704700BF0010024000127A00ED
:1011C000C8160008B816000800093D0000287BD0AA
:1011D00038B50446036813F0020F17D013F0040F5C
:1011E00004D03B4A536843F4E0635360236813F030
:1011F000080F04D0364A536843F460535360344AAE
:10120000536823F0F003A1680B435360236813F085
:10121000010F31D06368012B20D0022B25D02C4A3E
:10122000126812F0020F51D029494A6822F00302D5
:1012300013434B60FFF768FD0546254B5B6803F0E1
:101240000C036268B3EB820F16D0FFF75DFD401B05
:1012500041F288339842F0D9032034E01C4A1268E6
:1012600012F4003FE0D101202DE0194A126812F07B
:10127000007FD9D1012026E0236813F0040F06D0A7
:10128000134A536823F4E063E1680B435360236817
:1012900013F0080F07D00E4A536823F460532169F6
:1012A00043EAC1035360FFF767FF094B5B68C3F371
:1012B0000313084AD35CD840074B1860074B1868E3
:1012C000FFF7E4FC002038BD012070470120FAE759
:1012D00000100240D816000808000020040000207A
:1012E00070B582B00024A446A1E07E4DAB4214D07C
:1012F0000CD8A5F58015AB420FD005F57025AB4293
:101300000BD0A5F58015AB4210D106E0764DAB426F
:1013100003D005F58035AB4208D18B68002B50D047
:10132000012B49D04261082400E0CC68BEF1FF0FD8
:1013300049D806464FEA8C0233680F25954023EAC8
:10134000050304FA02F2134333604B6813F0805F25
:101350006BD0664B9A6942F001029A619B6903F077
:1013600001030193019B4FEA9C02951C604B53F8CB
:1013700025600CF00305AD000F23AB4026EA030601
:101380005C4B984226D003F58063984200F08C8035
:1013900003F58063984200F0898003F580639842EA
:1013A00016D0042317E0CC680434BFE7CC680834B7
:1013B000BCE7CC680C34B9E702610824B6E7002426
:1013C000B4E70424B2E7061DACF108029200B3E7CB
:1013D000032300E00023AB4033430232444D45F881
:1013E00022304B6813F4801F62D0434A936843EA6B
:1013F0000E0393604B6813F4001F5FD03E4AD3681E
:1014000043EA0E03D3604B6813F4003F5CD03A4AC2
:10141000536843EA0E0353604B6813F4803F59D07E
:10142000354A136843EA0E0313600CF1010C0B6894
:1014300033FA0CF254D0012202FA0CF203EA020E43
:1014400032EA0303F1D14B68122B3FF64EAF122B59
:101450003FF66CAF01A555F823F000BF1B13000841
:101460002B130008AD130008BF1300082D1300084C
:101470002D1300082D1300082D1300082D1300084C
:101480002D1300082D1300082D1300082D1300083C
:101490002D1300082D1300082D1300082D1300082C
:1014A000A7130008B3130008012394E7022392E76F
:1014B000114A936823EA0E0393609BE70E4AD368B0
:1014C00023EA0E03D3609EE70B4A536823EA0E0318
:1014D0005360A1E7084A136823EA0E031360A4E7E8
:1014E00002B070BD00002210000031100010024058
:1014F0000000014000080140000401400AB1016100
:101500007047090401617047002808DB0901C9B26E
:1015100000F1604000F5614080F80013704700F072
:101520000F000901C9B2014B1954704714ED00E0D6
:1015300000B500F00700C0F1070CBCF1040F28BF94
:101540004FF0040C031D062B0FD9C31E4FF0FF3EB6
:101550000EFA0CF021EA000199400EFA03FE22EA8D
:101560000E0241EA02005DF804FB0023EEE70000F2
:10157000074AD36823F4E0631B041B0C000200F449
:10158000E060034343F0BF6343F40033D36070472C
:1015900000ED00E010B50446054BD868C0F302200A
:1015A000FFF7C6FF01462046FFF7AEFF10BD00BFA4
:1015B00000ED00E00138B0F1807F0BD24FF0E02366
:1015C0005861054AF02182F8231000209861072213
:1015D0001A6170470120704700ED00E0704700007D
:1015E000FFF7FCFF0B480C490C4A002302E0D458DB
:1015F000C4500433C4188C42F9D3094A094C00235F
:1016000001E013600432A242FBD3FEF725FEFEF791
:1016100048FF7047000000200C000020F016000872
:101620000C00002090000020FEE70000F8B500BF8D
:10163000F8BC08BC9E467047F8B500BFF8BC08BCB3
:041640009E4670470B
:1016440004E010021C07123732292D29252B3900FA
:10165400010310E110031D07062E2C292D2E2E3711
:101664003F0000021013800A29806400022A04004B
:1016740000007F2B040000007F0000000F01809613
:101684001180FFB103012C2DB203012C2DB30601EF
:101694002C2D012C2DB40107C003A20284C101C565
:1016A400C2020A00C3028A2AC4028AEEC5010E20BD
:1016B400003A01050102030405060708090A0B0C98
:1016C4000D0E0F1002030405060708090A0B0C0D82
:1016D4000E0F1010000000000000000001020304BF
:0416E40006070809E4
:0416E80039020008BB
:0416EC0011020008DF
:0C16F000010000001000000000127A0051
:04000005080015E1F9
:00000001FF
