:020000040800F2
:1000000000200020E5120008E9040008EB040008C5
:10001000ED040008EF040008F104000800000000EF
:10002000000000000000000000000000F3040008D1
:10003000F504000800000000F7040008F9040008B7
:100040002D1300082D1300082D1300082D13000890
:100050002D1300082D1300082D1300082D13000880
:100060002D1300082D1300082D1300082D13000870
:100070002D1300082D1300082D1300082D13000860
:100080002D1300082D1300082D1300080000000098
:100090000000000000000000000000002D13000818
:1000A0002D1300082D1300082D1300082D13000830
:1000B0002D1300082D1300082D1300082D13000820
:1000C0002D13000800000000000000002D130008A0
:1000D0002D1300082D1300082D1300082D13000800
:1000E0002D1300082D1300082D1300080000000038
:1000F0000000000000000000000000000000000000
:1001000000000000000000000000000000000000EF
:1001100000000000000000002D1300082D1300084F
:1001200000000000000000000000000000000000CF
:1001300000000000000000000000000000000000BF
:1001400000000000000000000000000000000000AF
:10015000000000000000000000000000000000009F
:10016000000000000000000000000000000000008F
:10017000000000000000000000000000000000007F
:10018000000000000000000000000000000000006F
:10019000000000000000000000000000000000005F
:1001A000000000000000000000000000000000004F
:1001B000000000000000000000000000000000003F
:1001C0000000000000000000000000005FF808F1DF
:1001D0000348044B834202D0034B03B118477047D6
:1001E0000C0000200C000020000000000548064B19
:1001F0001B1AD90F01EBA301491002D0034B03B125
:10020000184770470C0000200C0000200000000080
:1002100010B5064C237843B9FFF7DAFF044B13B14E
:100220000448AFF300800123237010BD0C000020B0
:10023000000000003013000808B5044B1BB104494E
:100240000448AFF30080BDE80840CFE7000000009D
:10025000100000203013000820F0030110F003000C
:10026000C0F1000051F8043B00F1040C4FEACC0C43
:100270006FF000021CBF22FA0CF213434FF0010C86
:100280004CEA0C2C4CEA0C4CA3EB0C0222EA0302C5
:1002900012EACC1204BF51F8043B0430F4D0C2F18E
:1002A000000102EA0102B2FA82F2C2F11F0200EB7F
:1002B000D200704770B50F4B0F4DAB42A3EB050654
:1002C00007D00024B61055F8043B01349847A642E5
:1002D000F9D801F02DF8094D094B5E1BAB424FEAEE
:1002E000A60606D0002455F8043B01349847A642E0
:1002F000F9D870BD901300089013000890130008FF
:100300009413000870B5860747D0541E002A3ED0CB
:100310000346CAB201E0013C39D303F8012B9D0723
:10032000F9D1032C2CD9CDB205EB05250F2C1A469B
:1003300005EB054534D9A4F1100C2CF00F0603F1A0
:10034000100EB6444FEA1C1CC2E90055C2E9025522
:1003500010327245F8D10CF1010214F00C0F03EBCE
:10036000021204F00F0C13D0ACF1040323F00303CA
:100370000433134442F8045B9342FBD10CF00304B2
:100380002CB1C9B21C4403F8011BA342FBD170BDC0
:1003900064461346002CF4D1F9E703461446C0E73F
:1003A000A446E1E782B0064B9A6942F004029A61E2
:1003B0009B6903F004030193019B02B0704700BFE7
:1003C0000010024072B6FEE708B50A480A4B036007
:1003D0004FF41653436000238360C36003610C2213
:1003E00042618361C36100F0C8F900B908BDFFF73D
:1003F000E9FF00BF280000200038014000B591B09F
:100400002822002106A8FFF77DFF00230193029315
:100410000393049305930223069301230A93102365
:100420000B9306A800F002FB68B90F23019300218B
:10043000029103910491059101A800F029FD20B9D2
:1004400011B05DF804FBFFF7BDFFFFF7BBFF000035
:1004500030B589B000F0B6FAFFF7D0FFFFF7A2FF82
:10046000FFF7B2FF1E4B04AC0FCB07C424F8023BCE
:100470001B0C237000241DE004F120036B440D22AB
:1004800003F81C2C04F121036B440A2203F81C2CF2
:1004900004F122030DEB0304002304F81C3C01A823
:1004A000FFF7DAFE41F2883382B201A90D4800F06D
:1004B00094F92C464FF0FF3301226946094800F0B9
:1004C000F2F905460028F5D1082CD5D89DF8002072
:1004D00004F120036B4403F81C2C0134E4B2E9E777
:1004E0004813000828000020FEE7FEE7FEE7FEE7CD
:1004F000FEE770477047704708B500F06FFA08BD17
:1005000082B00E4B9A6942F001029A619A6902F038
:1005100001020092009ADA6942F08052DA61DB69E6
:1005200003F080530193019B054A536823F0E06375
:1005300043F00073536002B0704700BF00100240E8
:100540000000014010B586B000230293039304938A
:1005500005930268174B9A4201D006B010BD03F50F
:1005600058439A6942F480429A619A6902F480423F
:100570000092009A9A6942F004029A619B6903F022
:1005800004030193019B4FF400730293022303932E
:1005900003230593084C02A9204600F029FD4FF4DF
:1005A0008063029300230393049302A9204600F082
:1005B0001FFDD2E70038014000080140026802F147
:1005C0000C0353E8003F23F490730C3242E80031EF
:1005D0000029F3D1026802F1140353E8003F23F02D
:1005E0000103143242E800310029F3D1036B012BDF
:1005F00005D0202380F8423000230363704702684F
:1006000002F10C0353E8003F23F010030C3242E8E0
:1006100000310029F3D1ECE710B5044602681369F4
:1006200023F44053C1680B431361836802691A4382
:1006300043691A43C3691A430168CB6823F416431C
:1006400023F00C031343CB600268536923F4407317
:1006500081690B4353610268244B9A4223D000F016
:10066000A7FCE369B3F5004F20D000EB800202EB5A
:10067000820263689B00B2FBF3F21D48A0FB0231CB
:100680004909642303FB11231B013233A0FB03033D
:100690005B0903F0F00202EB011203F00F03216883
:1006A00013448B6010BD00F093FCDAE700EB800090
:1006B00000EB800063685B00B0FBF3F00C4AA2FB28
:1006C00000314909642303FB1103DB003233A2FB31
:1006D00003235B095A0002F4F87202EB011203F0E3
:1006E0000703216813448B60DCE700BF003801403A
:1006F0001F85EB512DE9F04383B005460E461746A2
:100700009946DDF828802B681C6836EA04040CBF83
:1007100001240024BC4228D1B8F1FF3FF3D000F0FF
:1007200069F9A0EB0900404523D8B8F1000F22D0A9
:100730002B68DA6812F0040FE5D0802EE3D0402E4B
:10074000E1D01A6812F0080FDDD0002401941A6875
:1007500001925B680193019B2846FFF72FFF082356
:100760006B6485F84040012000E0002003B0BDE844
:10077000F0830320FAE70320F8E760B310B50446DE
:1007800090F8413013B3242384F841302268D368B1
:1007900023F40053D3602046FFF73EFF226813691D
:1007A00023F4904313612268536923F02A035361B1
:1007B0002268D36843F40053D36000206064202390
:1007C00084F8413084F84230606310BD80F84030D6
:1007D000FFF7B8FED7E7012070472DE9F04182B05E
:1007E0001E4690F84130DBB2202B56D104460D4610
:1007F0009046002955D00AB901204FE000234364F8
:10080000212380F8413000F0F5F80746A4F8248051
:10081000A4F82680A368B3F5805F02D04FF00008EB
:1008200014E023692BB34FF000080FE0202384F875
:100830004130032032E038F8023B2268C3F308035A
:100840005360E28C92B2013A92B2E284E38C9BB2A2
:1008500093B100963B46002280212046FFF74AFFD5
:100860000028E3D1002DE6D015F8012B23685A604B
:10087000E7E7A8460025E9E700963B46002240212D
:100880002046FFF737FF18B9202384F8413005E0F0
:10089000202384F84130032000E0022002B0BDE8AC
:1008A000F0810120FAE72DE9F04182B01E4690F870
:1008B0004230DBB2202B59D104460D469046002928
:1008C00058D00AB9012052E000234364222280F864
:1008D0004220036300F08EF80746A4F82C80A4F8A9
:1008E0002E80A368B3F5805F02D04FF000081CE0B3
:1008F000236913B14FF0000817E0A846002514E063
:10090000202384F84230032031E023685B68C3F37E
:10091000080328F8023B03E023685B682B7001356D
:10092000E28D92B2013A92B2E285E38D9BB2C3B1FD
:1009300000963B46002220212046FFF7DBFE0028E0
:10094000DED1002DE1D0A368B3F5805FE4D013B908
:100950002369002BE0D023685B6803F07F032B70D2
:10096000DDE7202384F84230002000E0022002B0BE
:10097000BDE8F0810120FAE710B504460E4B1A7865
:100980004FF47A73B3FBF2F30C4A1068B0FBF3F048
:1009900000F092FC68B90F2C01D901200AE0002276
:1009A00021464FF0FF3000F077FC054B1C60002023
:1009B00000E0012010BD00BF000000200800002062
:1009C0000400002008B5032000F054FC0F20FFF7BE
:1009D000D3FFFFF795FD002008BD0000034A116812
:1009E000034B1B780B441360704700BF700000205E
:1009F00000000020014B1868704700BF7000002005
:100A000082B0084B1B68084AA2FB03235B0A00FB69
:100A100003F3019300BF019B5A1E0192002BF9D1F1
:100A200002B0704708000020D34D6210002800F08B
:100A3000F18170B582B00446036813F0010F2CD029
:100A4000994B5B6803F00C03042B1DD0964B5B683D
:100A500003F00C03082B12D06368B3F5803F41D03C
:100A6000002B55D103F1804303F504331A6822F4B7
:100A700080321A601A6822F480221A6037E08A4BAA
:100A80005B6813F4803FE7D0874B1B6813F4003F8B
:100A900003D06368002B00F0BF81236813F0020FBE
:100AA00075D0814B5B6813F00C0F5FD07E4B5B6899
:100AB00003F00C03082B54D02369002B00F08A802C
:100AC0007A4B01221A60FFF795FF0546764B1B68AB
:100AD00013F0020F75D1FFF78DFF401B0228F5D9E7
:100AE00003209EE1704A136843F480331360636807
:100AF00043B3FFF77FFF05466B4B1B6813F4003FC2
:100B0000CBD1FFF777FF401B6428F5D9032088E19C
:100B1000B3F5A02F09D0644B1A6822F480321A6012
:100B20001A6822F480221A60E1E703F18043A3F5FA
:100B30003C331A6842F480221A601A6842F4803208
:100B40001A60D4E7FFF756FF0546574B1B6813F4AE
:100B5000003FA2D0FFF74EFF401B6428F5D90320C9
:100B60005FE1514B5B6813F4803FA5D14E4B1B688E
:100B700013F0020F03D02369012B40F04F814A4A42
:100B8000136823F0F803616943EAC1031360236823
:100B900013F0080F33D0A369002B5CD0434B012224
:100BA000C3F88024FFF726FF05463F4B5B6A13F02E
:100BB000020F21D1FFF71EFF401B0228F5D90320A9
:100BC0002FE1394A136823F0F803616943EAC1034E
:100BD0001360DCE7354B00221A60FFF70BFF054678
:100BE000314B1B6813F0020FD1D0FFF703FF401BFE
:100BF0000228F5D9032014E10120FFF701FF236843
:100C000013F0040F00F09680274BDB6913F0805F30
:100C100034D1254BDA6942F08052DA61DB6903F0A6
:100C200080530193019B0125214B1B6813F4807FA6
:100C300026D0E368012B3DD0002B53D103F1804334
:100C400003F504331A6A22F001021A621A6A22F0CA
:100C500004021A6233E0154B0022C3F88024FFF728
:100C6000C9FE0546104B5B6A13F0020FC7D0FFF7B1
:100C7000C1FE401B0228F5D90320D2E00025D3E7AE
:100C80000B4A136843F480731360FFF7B3FE064604
:100C9000074B1B6813F4807FCBD1FFF7ABFE801BA3
:100CA0006428F5D90320BCE0001002400000424255
:100CB000007000405F4A136A43F001031362E36867
:100CC00033B3FFF797FE06465A4B1B6A13F0020F29
:100CD0002FD1FFF78FFE801B41F288339842F3D962
:100CE00003209EE0052B09D0524B1A6A22F0010224
:100CF0001A621A6A22F004021A62E0E74D4B1A6A7D
:100D000042F004021A621A6A42F001021A62D6E73D
:100D1000FFF770FE0646474B1B6A13F0020F08D020
:100D2000FFF768FE801B41F288339842F3D9032015
:100D300077E0E5B9E369002B72D03E4A526802F0D1
:100D40000C02082A56D0022B17D03B4B00221A6601
:100D5000FFF750FE0446374B1B6813F0007F47D067
:100D6000FFF748FE001B0228F5D9032059E0314A5D
:100D7000D36923F08053D361DCE72F4B00221A663E
:100D8000FFF738FE05462B4B1B6813F0007F06D09B
:100D9000FFF730FE401B0228F5D9032041E0236A0B
:100DA000B3F5803F1AD023494B6823F47413226AA9
:100DB000606A024313434B601F4B01221A66FFF720
:100DC00019FE04461B4B1B6813F0007F0ED1FFF782
:100DD00011FE001B0228F5D9032022E0154AD36A30
:100DE00023F00F03A1680B43D362DCE7002018E077
:100DF000002016E0012B16D00E4B5B6803F4803107
:100E0000226A914211D103F47013626A93420ED1A7
:100E1000002006E001207047012002E0012000E0F0
:100E2000002002B070BD0120FBE70120F9E701209E
:100E3000F7E700BF00100240000042420F4B5B6822
:100E400003F00C02082A01D00D487047C3F3834217
:100E50000C49885C13F4803F0BD0084BDB6A03F02D
:100E60000F03094AD35C064A02FB00F0B0FBF3F023
:100E70007047064B03FB00F0704700BF00100240B4
:100E800000127A00681300085813000800093D009A
:100E900000287BD038B50446036813F0020F17D042
:100EA00013F0040F04D03B4A536843F4E0635360EB
:100EB000236813F0080F04D0364A536843F4605394
:100EC0005360344A536823F0F003A1680B43536026
:100ED000236813F0010F31D06368012B20D0022B5F
:100EE00025D02C4A126812F0020F51D029494A68C5
:100EF00022F0030213434B60FFF77CFD0546254BB0
:100F00005B6803F00C036268B3EB820F16D0FFF747
:100F100071FD401B41F288339842F0D9032034E040
:100F20001C4A126812F4003FE0D101202DE0194A5A
:100F3000126812F0007FD9D1012026E0236813F057
:100F4000040F06D0134A536823F4E063E1680B43AF
:100F50005360236813F0080F07D00E4A536823F438
:100F60006053216943EAC1035360FFF767FF094BF0
:100F70005B68C3F30313084AD35CD840074B18607F
:100F8000074B1868FFF7F8FC002038BD01207047B8
:100F90000120FAE70010024080130008080000203A
:100FA00004000020014B1868704700BF08000020B3
:100FB00008B5FFF7F7FF044B5B68C3F30223034A4E
:100FC000D35CD84008BD00BF001002407813000871
:100FD00008B5FFF7E7FF044B5B68C3F3C223034A7E
:100FE000D35CD84008BD00BF001002407813000851
:100FF00070B582B00024A446A1E07E4DAB4214D06F
:101000000CD8A5F58015AB420FD005F57025AB4285
:101010000BD0A5F58015AB4210D106E0764DAB4262
:1010200003D005F58035AB4208D18B68002B50D03A
:10103000012B49D04261082400E0CC68BEF1FF0FCB
:1010400049D806464FEA8C0233680F25954023EABB
:10105000050304FA02F2134333604B6813F0805F18
:101060006BD0664B9A6942F001029A619B6903F06A
:1010700001030193019B4FEA9C02951C604B53F8BE
:1010800025600CF00305AD000F23AB4026EA0306F4
:101090005C4B984226D003F58063984200F08C8028
:1010A00003F58063984200F0898003F580639842DD
:1010B00016D0042317E0CC680434BFE7CC680834AA
:1010C000BCE7CC680C34B9E702610824B6E7002419
:1010D000B4E70424B2E7061DACF108029200B3E7BE
:1010E000032300E00023AB4033430232444D45F874
:1010F00022304B6813F4801F62D0434A936843EA5E
:101100000E0393604B6813F4001F5FD03E4AD36810
:1011100043EA0E03D3604B6813F4003F5CD03A4AB5
:10112000536843EA0E0353604B6813F4803F59D071
:10113000354A136843EA0E0313600CF1010C0B6887
:1011400033FA0CF254D0012202FA0CF203EA020E36
:1011500032EA0303F1D14B68122B3FF64EAF122B4C
:101160003FF66CAF01A555F823F000BF2B10000827
:101170003B100008BD100008CF1000083D1000080B
:101180003D1000083D1000083D1000083D1000080B
:101190003D1000083D1000083D1000083D100008FB
:1011A0003D1000083D1000083D1000083D100008EB
:1011B000B7100008C3100008012394E7022392E748
:1011C000114A936823EA0E0393609BE70E4AD368A3
:1011D00023EA0E03D3609EE70B4A536823EA0E030B
:1011E0005360A1E7084A136823EA0E031360A4E7DB
:1011F00002B070BD0000221000003110001002404B
:10120000000001400008014000040140002808DB04
:101210000901C9B200F1604000F5614080F8001397
:10122000704700F00F000901C9B2014B1954704713
:1012300014ED00E000B500F00700C0F1070CBCF1B0
:10124000040F28BF4FF0040C031D062B0FD9C31E3B
:101250004FF0FF3E0EFA0CF021EA000199400EFA21
:1012600003FE22EA0E0241EA02005DF804FB0023BD
:10127000EEE70000074AD36823F4E0631B041B0C6D
:10128000000200F4E060034343F0BF6343F4003323
:10129000D360704700ED00E010B50446054BD868F8
:1012A000C0F30220FFF7C6FF01462046FFF7AEFF5E
:1012B00010BD00BF00ED00E00138B0F1807F0BD21F
:1012C0004FF0E0235861054AF02182F823100020F6
:1012D000986107221A6170470120704700ED00E015
:1012E00070470000FFF7FCFF0B480C490C4A002335
:1012F00002E0D458C4500433C4188C42F9D3094ACC
:10130000094C002301E013600432A242FBD3FEF734
:10131000D1FFFFF79DF87047000000200C0000206F
:10132000981300080C00002074000020FEE7000065
:10133000F8B500BFF8BC08BC9E467047F8B500BFC2
:08134000F8BC08BC9E46704792
:1013480048656C6C6F20776F726C64210D0A000021
:101358000102030405060708090A0B0C0D0E0F10FD
:1013680002030405060708090A0B0C0D0E0F1010DE
:10137800000000000102030400000000000000005B
:08138800010203040607080935
:041390003902000816
:04139400110200083A
:0C139800010000001000000000127A00AC
:04000005080012E5F8
:00000001FF
