:020000040800F2
:1000000000200020A50D00081D0400081F040008A2
:100010002104000823040008250400080000000053
:10002000000000000000000000000000270400089D
:1000300029040008000000002B0400082D0400081B
:10004000ED0D0008ED0D0008ED0D0008ED0D0008A8
:10005000ED0D0008ED0D0008ED0D0008ED0D000898
:10006000ED0D0008ED0D0008ED0D0008ED0D000888
:10007000ED0D0008ED0D0008ED0D0008ED0D000878
:10008000ED0D0008ED0D0008ED0D0008000000006A
:10009000000000000000000000000000ED0D00085E
:1000A000ED0D0008ED0D0008ED0D0008ED0D000848
:1000B000ED0D0008ED0D0008ED0D0008ED0D000838
:1000C000ED0D00080000000000000000ED0D00082C
:1000D000ED0D0008ED0D0008ED0D0008ED0D000818
:1000E000ED0D0008ED0D0008ED0D0008000000000A
:1000F0000000000000000000000000000000000000
:1001000000000000000000000000000000000000EF
:100110000000000000000000ED0D0008ED0D0008DB
:1001200000000000000000000000000000000000CF
:1001300000000000000000000000000000000000BF
:1001400000000000000000000000000000000000AF
:10015000000000000000000000000000000000009F
:10016000000000000000000000000000000000008F
:10017000000000000000000000000000000000007F
:10018000000000000000000000000000000000006F
:10019000000000000000000000000000000000005F
:1001A000000000000000000000000000000000004F
:1001B000000000000000000000000000000000003F
:1001C0000000000000000000000000005FF808F1DF
:1001D0000348044B834202D0034B03B118477047D6
:1001E0000C0000200C000020000000000548064B19
:1001F0001B1AD90F01EBA301491002D0034B03B125
:10020000184770470C0000200C0000200000000080
:1002100010B5064C237843B9FFF7DAFF044B13B14E
:100220000448AFF300800123237010BD0C000020B0
:1002300000000000F00D000808B5044B1BB1044994
:100240000448AFF30080BDE80840CFE7000000009D
:1002500010000020F00D000870B50F4B0F4DAB42A1
:10026000A3EB050607D00024B61055F8043B013473
:100270009847A642F9D800F0BBFD094D094B5E1B1B
:10028000AB424FEAA60606D0002455F8043B0134E1
:100290009847A642F9D870BD380E0008380E0008FD
:1002A000380E00083C0E000870B5860747D0541E73
:1002B000002A3ED00346CAB201E0013C39D303F81C
:1002C000012B9D07F9D1032C2CD9CDB205EB0525C7
:1002D0000F2C1A4605EB054534D9A4F1100C2CF06F
:1002E0000F0603F1100EB6444FEA1C1CC2E900557C
:1002F000C2E9025510327245F8D10CF1010214F036
:100300000C0F03EB021204F00F0C13D0ACF104033A
:1003100023F003030433134442F8045B9342FBD1FC
:100320000CF003042CB1C9B21C4403F8011BA34216
:10033000FBD170BD64461346002CF4D1F9E70346A7
:100340001446C0E7A446E1E730B587B00024029424
:10035000039404940594134B9A6942F010029A6135
:100360009A6902F010020092009A9A6942F004021F
:100370009A619B6903F004030193019B0A4D224695
:100380004FF40071284600F09BFC4FF40073029379
:10039000012303930494059302A9284600F082FBED
:1003A00007B030BD001002400010014072B6FEE7F9
:1003B00000B591B02822002106A8FFF775FF0023A1
:1003C000019302930393049305930223069301225E
:1003D0000A9210220B920D934FF480130F9306A8EC
:1003E00000F0A4F870B90F230193022302930021B7
:1003F00003910491059101A800F0CAFA20B911B047
:100400005DF804FBFFF7D2FFFFF7D0FF08B500F05F
:1004100059F8FFF7CDFFFFF797FFFEE7FEE7FEE78E
:10042000FEE7FEE7FEE770477047704708B500F04B
:1004300055F808BD82B00E4B9A6942F001029A61EC
:100440009A6902F001020092009ADA6942F0805241
:10045000DA61DB6903F080530193019B054A53681D
:1004600023F0E06343F00073536002B0704700BFB5
:10047000001002400000014010B504460E4B1A78EF
:100480004FF47A73B3FBF2F30C4A1068B0FBF3F04D
:1004900000F072FC68B90F2C01D901200AE000229B
:1004A00021464FF0FF3000F057FC054B1C60002048
:1004B00000E0012010BD00BF000000200800002067
:1004C0000400002008B5032000F034FC0F20FFF7E3
:1004D000D3FFFFF7AFFF002008BD0000034A1168FB
:1004E000034B1B780B441360704700BF28000020AB
:1004F00000000020014B1868704700BF2800002052
:1005000082B0084B1B68084AA2FB03235B0A00FB6E
:1005100003F3019300BF019B5A1E0192002BF9D1F6
:1005200002B0704708000020D34D6210002800F090
:10053000F18170B582B00446036813F0010F2CD02E
:10054000994B5B6803F00C03042B1DD0964B5B6842
:1005500003F00C03082B12D06368B3F5803F41D041
:10056000002B55D103F1804303F504331A6822F4BC
:1005700080321A601A6822F480221A6037E08A4BAF
:100580005B6813F4803FE7D0874B1B6813F4003F90
:1005900003D06368002B00F0BF81236813F0020FC3
:1005A00075D0814B5B6813F00C0F5FD07E4B5B689E
:1005B00003F00C03082B54D02369002B00F08A8031
:1005C0007A4B01221A60FFF795FF0546764B1B68B0
:1005D00013F0020F75D1FFF78DFF401B0228F5D9EC
:1005E00003209EE1704A136843F48033136063680C
:1005F00043B3FFF77FFF05466B4B1B6813F4003FC7
:10060000CBD1FFF777FF401B6428F5D9032088E1A1
:10061000B3F5A02F09D0644B1A6822F480321A6017
:100620001A6822F480221A60E1E703F18043A3F5FF
:100630003C331A6842F480221A601A6842F480320D
:100640001A60D4E7FFF756FF0546574B1B6813F4B3
:10065000003FA2D0FFF74EFF401B6428F5D90320CE
:100660005FE1514B5B6813F4803FA5D14E4B1B6893
:1006700013F0020F03D02369012B40F04F814A4A47
:10068000136823F0F803616943EAC1031360236828
:1006900013F0080F33D0A369002B5CD0434B012229
:1006A000C3F88024FFF726FF05463F4B5B6A13F033
:1006B000020F21D1FFF71EFF401B0228F5D90320AE
:1006C0002FE1394A136823F0F803616943EAC10353
:1006D0001360DCE7354B00221A60FFF70BFF05467D
:1006E000314B1B6813F0020FD1D0FFF703FF401B03
:1006F0000228F5D9032014E10120FFF701FF236848
:1007000013F0040F00F09680274BDB6913F0805F35
:1007100034D1254BDA6942F08052DA61DB6903F0AB
:1007200080530193019B0125214B1B6813F4807FAB
:1007300026D0E368012B3DD0002B53D103F1804339
:1007400003F504331A6A22F001021A621A6A22F0CF
:1007500004021A6233E0154B0022C3F88024FFF72D
:10076000C9FE0546104B5B6A13F0020FC7D0FFF7B6
:10077000C1FE401B0228F5D90320D2E00025D3E7B3
:100780000B4A136843F480731360FFF7B3FE064609
:10079000074B1B6813F4807FCBD1FFF7ABFE801BA8
:1007A0006428F5D90320BCE000100240000042425A
:1007B000007000405F4A136A43F001031362E3686C
:1007C00033B3FFF797FE06465A4B1B6A13F0020F2E
:1007D0002FD1FFF78FFE801B41F288339842F3D967
:1007E00003209EE0052B09D0524B1A6A22F0010229
:1007F0001A621A6A22F004021A62E0E74D4B1A6A82
:1008000042F004021A621A6A42F001021A62D6E742
:10081000FFF770FE0646474B1B6A13F0020F08D025
:10082000FFF768FE801B41F288339842F3D903201A
:1008300077E0E5B9E369002B72D03E4A526802F0D6
:100840000C02082A56D0022B17D03B4B00221A6606
:10085000FFF750FE0446374B1B6813F0007F47D06C
:10086000FFF748FE001B0228F5D9032059E0314A62
:10087000D36923F08053D361DCE72F4B00221A6643
:10088000FFF738FE05462B4B1B6813F0007F06D0A0
:10089000FFF730FE401B0228F5D9032041E0236A10
:1008A000B3F5803F1AD023494B6823F47413226AAE
:1008B000606A024313434B601F4B01221A66FFF725
:1008C00019FE04461B4B1B6813F0007F0ED1FFF787
:1008D00011FE001B0228F5D9032022E0154AD36A35
:1008E00023F00F03A1680B43D362DCE7002018E07C
:1008F000002016E0012B16D00E4B5B6803F480310C
:10090000226A914211D103F47013626A93420ED1AC
:10091000002006E001207047012002E0012000E0F5
:10092000002002B070BD0120FBE70120F9E70120A3
:10093000F7E700BF00100240000042420F4B5B6827
:1009400003F00C02082A01D00D487047C3F383421C
:100950000C49885C13F4803F0BD0084BDB6A03F032
:100960000F03094AD35C064A02FB00F0B0FBF3F028
:100970007047064B03FB00F0704700BF00100240B9
:1009800000127A00180E0008080E000800093D0049
:1009900000287BD038B50446036813F0020F17D047
:1009A00013F0040F04D03B4A536843F4E0635360F0
:1009B000236813F0080F04D0364A536843F4605399
:1009C0005360344A536823F0F003A1680B4353602B
:1009D000236813F0010F31D06368012B20D0022B64
:1009E00025D02C4A126812F0020F51D029494A68CA
:1009F00022F0030213434B60FFF77CFD0546254BB5
:100A00005B6803F00C036268B3EB820F16D0FFF74C
:100A100071FD401B41F288339842F0D9032034E045
:100A20001C4A126812F4003FE0D101202DE0194A5F
:100A3000126812F0007FD9D1012026E0236813F05C
:100A4000040F06D0134A536823F4E063E1680B43B4
:100A50005360236813F0080F07D00E4A536823F43D
:100A60006053216943EAC1035360FFF767FF094BF5
:100A70005B68C3F30313084AD35CD840074B186084
:100A8000074B1868FFF7F8FC002038BD01207047BD
:100A90000120FAE700100240280E0008080000209C
:100AA0000400002070B582B00024A446A1E07E4D71
:100AB000AB4214D00CD8A5F58015AB420FD005F58C
:100AC0007025AB420BD0A5F58015AB4210D106E0E6
:100AD000764DAB4203D005F58035AB4208D18B682B
:100AE000002B50D0012B49D04261082400E0CC6893
:100AF000BEF1FF0F49D806464FEA8C0233680F2536
:100B0000954023EA050304FA02F2134333604B686D
:100B100013F0805F6BD0664B9A6942F001029A61D4
:100B20009B6903F001030193019B4FEA9C02951C12
:100B3000604B53F825600CF00305AD000F23AB406C
:100B400026EA03065C4B984226D003F58063984260
:100B500000F08C8003F58063984200F0898003F5F3
:100B60008063984216D0042317E0CC680434BFE7B2
:100B7000CC680834BCE7CC680C34B9E702610824BF
:100B8000B6E70024B4E70424B2E7061DACF108027E
:100B90009200B3E7032300E00023AB40334302326B
:100BA000444D45F822304B6813F4801F62D0434A0D
:100BB000936843EA0E0393604B6813F4001F5FD001
:100BC0003E4AD36843EA0E03D3604B6813F4003FF8
:100BD0005CD03A4A536843EA0E0353604B6813F4FF
:100BE000803F59D0354A136843EA0E0313600CF175
:100BF000010C0B6833FA0CF254D0012202FA0CF209
:100C000003EA020E32EA0303F1D14B68122B3FF6DE
:100C10004EAF122B3FF66CAF01A555F823F000BF85
:100C2000DF0A0008EF0A0008710B0008830B0008B8
:100C3000F10A0008F10A0008F10A0008F10A0008A8
:100C4000F10A0008F10A0008F10A0008F10A000898
:100C5000F10A0008F10A0008F10A0008F10A000888
:100C6000F10A00086B0B0008770B0008012394E7DA
:100C7000022392E7114A936823EA0E0393609BE7ED
:100C80000E4AD36823EA0E03D3609EE70B4A5368EB
:100C900023EA0E035360A1E7084A136823EA0E0310
:100CA0001360A4E702B070BD0000221000003110F4
:100CB0000010024000000140000801400004014013
:100CC0000AB101617047090401617047002808DB1F
:100CD0000901C9B200F1604000F5614080F80013DD
:100CE000704700F00F000901C9B2014B1954704759
:100CF00014ED00E000B500F00700C0F1070CBCF1F6
:100D0000040F28BF4FF0040C031D062B0FD9C31E80
:100D10004FF0FF3E0EFA0CF021EA000199400EFA66
:100D200003FE22EA0E0241EA02005DF804FB002302
:100D3000EEE70000074AD36823F4E0631B041B0CB2
:100D4000000200F4E060034343F0BF6343F4003368
:100D5000D360704700ED00E010B50446054BD8683D
:100D6000C0F30220FFF7C6FF01462046FFF7AEFFA3
:100D700010BD00BF00ED00E00138B0F1807F0BD264
:100D80004FF0E0235861054AF02182F8231000203B
:100D9000986107221A6170470120704700ED00E05A
:100DA00070470000FFF7FCFF0B480C490C4A00237A
:100DB00002E0D458C4500433C4188C42F9D3094A11
:100DC000094C002301E013600432A242FBD3FFF779
:100DD00043FAFFF71BFB7047000000200C000020C7
:100DE000400E00080C0000202C000020FEE7000050
:100DF000F8B500BFF8BC08BC9E467047F8B500BF08
:080E0000F8BC08BC9E467047D7
:100E08000102030405060708090A0B0C0D0E0F1052
:100E180002030405060708090A0B0C0D0E0F101033
:100E28000000000000000000010203040607080992
:040E38003902000873
:040E3C001102000897
:0C0E4000010000001000000000127A0009
:0400000508000DA53D
:00000001FF
