:020000040800F2
:1000000000200020E1140008AD060008AF0600083B
:10001000B1060008B3060008B5060008000000009D
:10002000000000000000000000000000B70600080B
:10003000B906000800000000BB060008BD06000865
:100040002915000829150008291500082915000898
:100050002915000829150008291500082915000888
:100060002915000829150008291500082915000878
:100070002915000829150008291500082915000868
:10008000291500082915000829150008000000009E
:10009000000000000000000000000000291500081A
:1000A0002915000829150008291500082915000838
:1000B0002915000829150008291500082915000828
:1000C00029150008000000000000000029150008A4
:1000D0002915000829150008291500082915000808
:1000E000291500082915000829150008000000003E
:1000F0000000000000000000000000000000000000
:1001000000000000000000000000000000000000EF
:100110000000000000000000291500082915000853
:1001200000000000000000000000000000000000CF
:1001300000000000000000000000000000000000BF
:1001400000000000000000000000000000000000AF
:10015000000000000000000000000000000000009F
:10016000000000000000000000000000000000008F
:10017000000000000000000000000000000000007F
:10018000000000000000000000000000000000006F
:10019000000000000000000000000000000000005F
:1001A000000000000000000000000000000000004F
:1001B000000000000000000000000000000000003F
:1001C0000000000000000000000000005FF808F1DF
:1001D0000348044B834202D0034B03B118477047D6
:1001E0000C0000200C000020000000000548064B19
:1001F0001B1AD90F01EBA301491002D0034B03B125
:10020000184770470C0000200C0000200000000080
:1002100010B5064C237843B9FFF7DAFF044B13B14E
:100220000448AFF300800123237010BD0C000020B0
:10023000000000002C15000808B5044B1BB1044950
:100240000448AFF30080BDE80840CFE7000000009D
:10025000100000202C15000870B50F4B0F4DAB425D
:10026000A3EB050607D00024B61055F8043B013473
:100270009847A642F9D801F059F9094D094B5E1B80
:10028000AB424FEAA60606D0002455F8043B0134E1
:100290009847A642F9D870BD841500088415000857
:1002A000841500088815000870B5860747D0541ECD
:1002B000002A3ED00346CAB201E0013C39D303F81C
:1002C000012B9D07F9D1032C2CD9CDB205EB0525C7
:1002D0000F2C1A4605EB054534D9A4F1100C2CF06F
:1002E0000F0603F1100EB6444FEA1C1CC2E900557C
:1002F000C2E9025510327245F8D10CF1010214F036
:100300000C0F03EB021204F00F0C13D0ACF104033A
:1003100023F003030433134442F8045B9342FBD1FC
:100320000CF003042CB1C9B21C4403F8011BA34216
:10033000FBD170BD64461346002CF4D1F9E70346A7
:100340001446C0E7A446E1E780EA010C1CF0030F65
:1003500037D110F0030C20F0030021F0030150F816
:10036000042B08BF51F8043B0ED08CF0030C6FF047
:100370007F434FEACC0C23FA0CFC51F8043B42EAD1
:100380000C0243EA0C0300BFA2F1013C9A4201BFF8
:100390002CEA020C1CF0803F50F8042B51F8043B6F
:1003A000F2D04FEA02604FEA1222012828BFB0EBD8
:1003B000036F08BF1B0AF4D003F0FF03000EC01A3E
:1003C000704710F0030F0AD010F8012B11F8013B11
:1003D000012A28BF9A42F4D0A2EB030070474DF8DF
:1003E000045D50F8042B01F0030521F0030151F8DE
:1003F000043B022D26D04DD822F07F45B5EB132FBC
:10040000A2F1013C2CEA020C0DD11CF0803C08BF8B
:1004100051F8043B0AD185EA0205B5EB036F0CD114
:1004200050F8042BE8E74FEA13235BE03CF07F4CE5
:1004300054D10B784FEA126554E04FEA126503F08D
:10044000FF034FE04FEA0245A2F1013C4FEA154598
:100450002CEA020CB5EB134F18D11CF0803C08BFFE
:1004600051F8043B07D185EA0205B5EB034F09D1EA
:1004700050F8042BE6E75FEA0C4C2FD10B884FEACB
:1004800012452FE04FEA03434FEA12454FEA134368
:1004900028E000BF02F0FF05B5EB136FA2F1013CAD
:1004A0002CEA020C0DD11CF0803C08BF51F8043B33
:1004B0000AD185EA0205B5EB032F0AD150F8042BC7
:1004C000E8E74FEA13630DE012F0FF0F06D051F892
:1004D000043B4FEA122523F07F4303E04FF0000076
:1004E00020BC704705F0FF0203F0FF00012828BF81
:1004F000904204BF2D0A1B0AF4D0A2EB000020BCDE
:10050000704700BF30B589B0002404940594069468
:100510000794184B9A6942F008029A619A6902F0AE
:1005200008020192019A9A6942F010029A619A694E
:1005300002F010020292029A9A6942F004029A6151
:100540009B6903F004030393039B0B4D22464FF476
:100550004071284600F04CFD4FF440730493012392
:10056000059306940223079304A9284600F032FC61
:1005700009B030BD001002400010014072B6FEE725
:1005800008B50D480D4B03604FF4827343600023A0
:100590008360C360036143614FF400728261C36191
:1005A0000362436283620A23C36200F019FE00B94A
:1005B00008BDFFF7E3FF00BF28000020003800401F
:1005C00000B591B02822002106A8FFF76DFE002398
:1005D000019302930393049305930223069301234B
:1005E0000A9310230B9306A800F038F968B90F237B
:1005F00001930021029103910491059101A800F05B
:100600005FFB20B911B05DF804FBFFF7B7FFFFF700
:10061000B5FF000000B587B000F0D8F8FFF7D0FFB5
:10062000FFF770FFFFF7ACFF1D4B93E8030006AB2D
:1006300003E903000FE001224FF48071204600F02F
:10064000D7FC01224FF40071204600F0D1FC40F6A7
:10065000B83000F0D9F8134C00224FF480712046D6
:1006600000F0C6FC00224FF40071204600F0C0FCF0
:1006700001224FF48071204600F0BAFC4FF0FF33A6
:10068000009308230DEB030204A9074800F0FEFDC8
:1006900002A904A8FFF758FE0028CCD0D7E700BF76
:1006A000441500080010014028000020FEE7FEE786
:1006B000FEE7FEE7FEE770477047704708B500F0B9
:1006C00091F808BD82B00E4B9A6942F001029A611E
:1006D0009A6902F001020092009ADA6942F08052AF
:1006E000DA61DB6903F080530193019B054A53688B
:1006F00023F0E06343F00073536002B0704700BF23
:10070000001002400000014010B586B000230293A3
:100710000393049305930268174B9A4201D006B0E5
:1007200010BD03F5EC33DA6942F48042DA61DA692C
:1007300002F480420092009A9A6942F008029A619B
:100740009B6903F008030193019B4FF4304302932C
:100750000223039303230593084C02A9204600F0CB
:1007600039FB4FF48043029300230393049302A9BF
:10077000204600F02FFBD2E700380040000C01407B
:1007800010B504460E4B1A784FF47A73B3FBF2F3AC
:100790000C4A1068B0FBF3F000F086FC68B90F2C2F
:1007A00001D901200AE0002221464FF0FF3000F07D
:1007B0006BFC054B1C60002000E0012010BD00BF59
:1007C00000000020080000200400002008B50320DD
:1007D00000F048FC0F20FFF7D3FFFFF773FF002066
:1007E00008BD0000034A1168034B1B780B441360DB
:1007F000704700BF8000002000000020014B1868F7
:10080000704700BF8000002038B50446FFF7F6FFB0
:100810000546B4F1FF3F02D0044B1B781C44FFF7A0
:10082000EDFF401BA042FAD338BD00BF00000020FE
:1008300082B0084B1B68084AA2FB03235B0A00FB3B
:1008400003F3019300BF019B5A1E0192002BF9D1C3
:1008500002B0704708000020D34D6210002800F05D
:10086000F18170B582B00446036813F0010F2CD0FB
:10087000994B5B6803F00C03042B1DD0964B5B680F
:1008800003F00C03082B12D06368B3F5803F41D00E
:10089000002B55D103F1804303F504331A6822F489
:1008A00080321A601A6822F480221A6037E08A4B7C
:1008B0005B6813F4803FE7D0874B1B6813F4003F5D
:1008C00003D06368002B00F0BF81236813F0020F90
:1008D00075D0814B5B6813F00C0F5FD07E4B5B686B
:1008E00003F00C03082B54D02369002B00F08A80FE
:1008F0007A4B01221A60FFF781FF0546764B1B6891
:1009000013F0020F75D1FFF779FF401B0228F5D9CC
:1009100003209EE1704A136843F4803313606368D8
:1009200043B3FFF76BFF05466B4B1B6813F4003FA7
:10093000CBD1FFF763FF401B6428F5D9032088E182
:10094000B3F5A02F09D0644B1A6822F480321A60E4
:100950001A6822F480221A60E1E703F18043A3F5CC
:100960003C331A6842F480221A601A6842F48032DA
:100970001A60D4E7FFF742FF0546574B1B6813F494
:10098000003FA2D0FFF73AFF401B6428F5D90320AF
:100990005FE1514B5B6813F4803FA5D14E4B1B6860
:1009A00013F0020F03D02369012B40F04F814A4A14
:1009B000136823F0F803616943EAC10313602368F5
:1009C00013F0080F33D0A369002B5CD0434B0122F6
:1009D000C3F88024FFF712FF05463F4B5B6A13F014
:1009E000020F21D1FFF70AFF401B0228F5D903208F
:1009F0002FE1394A136823F0F803616943EAC10320
:100A00001360DCE7354B00221A60FFF7F7FE05465E
:100A1000314B1B6813F0020FD1D0FFF7EFFE401BE4
:100A20000228F5D9032014E10120FFF701FF236814
:100A300013F0040F00F09680274BDB6913F0805F02
:100A400034D1254BDA6942F08052DA61DB6903F078
:100A500080530193019B0125214B1B6813F4807F78
:100A600026D0E368012B3DD0002B53D103F1804306
:100A700003F504331A6A22F001021A621A6A22F09C
:100A800004021A6233E0154B0022C3F88024FFF7FA
:100A9000B5FE0546104B5B6A13F0020FC7D0FFF797
:100AA000ADFE401B0228F5D90320D2E00025D3E794
:100AB0000B4A136843F480731360FFF79FFE0646EA
:100AC000074B1B6813F4807FCBD1FFF797FE801B89
:100AD0006428F5D90320BCE0001002400000424227
:100AE000007000405F4A136A43F001031362E36839
:100AF00033B3FFF783FE06465A4B1B6A13F0020F0F
:100B00002FD1FFF77BFE801B41F288339842F3D947
:100B100003209EE0052B09D0524B1A6A22F00102F5
:100B20001A621A6A22F004021A62E0E74D4B1A6A4E
:100B300042F004021A621A6A42F001021A62D6E70F
:100B4000FFF75CFE0646474B1B6A13F0020F08D006
:100B5000FFF754FE801B41F288339842F3D90320FB
:100B600077E0E5B9E369002B72D03E4A526802F0A3
:100B70000C02082A56D0022B17D03B4B00221A66D3
:100B8000FFF73CFE0446374B1B6813F0007F47D04D
:100B9000FFF734FE001B0228F5D9032059E0314A43
:100BA000D36923F08053D361DCE72F4B00221A6610
:100BB000FFF724FE05462B4B1B6813F0007F06D081
:100BC000FFF71CFE401B0228F5D9032041E0236AF1
:100BD000B3F5803F1AD023494B6823F47413226A7B
:100BE000606A024313434B601F4B01221A66FFF7F2
:100BF00005FE04461B4B1B6813F0007F0ED1FFF768
:100C0000FDFD001B0228F5D9032022E0154AD36A16
:100C100023F00F03A1680B43D362DCE7002018E048
:100C2000002016E0012B16D00E4B5B6803F48031D8
:100C3000226A914211D103F47013626A93420ED179
:100C4000002006E001207047012002E0012000E0C2
:100C5000002002B070BD0120FBE70120F9E7012070
:100C6000F7E700BF00100240000042420F4B5B68F4
:100C700003F00C02082A01D00D487047C3F38342E9
:100C80000C49885C13F4803F0BD0084BDB6A03F0FF
:100C90000F03094AD35C064A02FB00F0B0FBF3F0F5
:100CA0007047064B03FB00F0704700BF0010024086
:100CB00000127A005C1500084C15000800093D0080
:100CC00000287BD038B50446036813F0020F17D014
:100CD00013F0040F04D03B4A536843F4E0635360BD
:100CE000236813F0080F04D0364A536843F4605366
:100CF0005360344A536823F0F003A1680B435360F8
:100D0000236813F0010F31D06368012B20D0022B30
:100D100025D02C4A126812F0020F51D029494A6896
:100D200022F0030213434B60FFF768FD0546254B95
:100D30005B6803F00C036268B3EB820F16D0FFF719
:100D40005DFD401B41F288339842F0D9032034E026
:100D50001C4A126812F4003FE0D101202DE0194A2C
:100D6000126812F0007FD9D1012026E0236813F029
:100D7000040F06D0134A536823F4E063E1680B4381
:100D80005360236813F0080F07D00E4A536823F40A
:100D90006053216943EAC1035360FFF767FF094BC2
:100DA0005B68C3F30313084AD35CD840074B186051
:100DB000074B1868FFF7E4FC002038BD012070479E
:100DC0000120FAE7001002406C150008080000201E
:100DD0000400002070B582B00024A446A1E07E4D3E
:100DE000AB4214D00CD8A5F58015AB420FD005F559
:100DF0007025AB420BD0A5F58015AB4210D106E0B3
:100E0000764DAB4203D005F58035AB4208D18B68F7
:100E1000002B50D0012B49D04261082400E0CC685F
:100E2000BEF1FF0F49D806464FEA8C0233680F2502
:100E3000954023EA050304FA02F2134333604B683A
:100E400013F0805F6BD0664B9A6942F001029A61A1
:100E50009B6903F001030193019B4FEA9C02951CDF
:100E6000604B53F825600CF00305AD000F23AB4039
:100E700026EA03065C4B984226D003F5806398422D
:100E800000F08C8003F58063984200F0898003F5C0
:100E90008063984216D0042317E0CC680434BFE77F
:100EA000CC680834BCE7CC680C34B9E7026108248C
:100EB000B6E70024B4E70424B2E7061DACF108024B
:100EC0009200B3E7032300E00023AB403343023238
:100ED000444D45F822304B6813F4801F62D0434ADA
:100EE000936843EA0E0393604B6813F4001F5FD0CE
:100EF0003E4AD36843EA0E03D3604B6813F4003FC5
:100F00005CD03A4A536843EA0E0353604B6813F4CB
:100F1000803F59D0354A136843EA0E0313600CF141
:100F2000010C0B6833FA0CF254D0012202FA0CF2D5
:100F300003EA020E32EA0303F1D14B68122B3FF6AB
:100F40004EAF122B3FF66CAF01A555F823F000BF52
:100F50000F0E00081F0E0008A10E0008B30E0008B7
:100F6000210E0008210E0008210E0008210E0008A5
:100F7000210E0008210E0008210E0008210E000895
:100F8000210E0008210E0008210E0008210E000885
:100F9000210E00089B0E0008A70E0008012394E70D
:100FA000022392E7114A936823EA0E0393609BE7BA
:100FB0000E4AD36823EA0E03D3609EE70B4A5368B8
:100FC00023EA0E035360A1E7084A136823EA0E03DD
:100FD0001360A4E702B070BD0000221000003110C1
:100FE00000100240000001400008014000040140E0
:100FF0000AB101617047090401617047002808DBEC
:101000000901C9B200F1604000F5614080F80013A9
:10101000704700F00F000901C9B2014B1954704725
:1010200014ED00E000B500F00700C0F1070CBCF1C2
:10103000040F28BF4FF0040C031D062B0FD9C31E4D
:101040004FF0FF3E0EFA0CF021EA000199400EFA33
:1010500003FE22EA0E0241EA02005DF804FB0023CF
:10106000EEE70000074AD36823F4E0631B041B0C7F
:10107000000200F4E060034343F0BF6343F4003335
:10108000D360704700ED00E010B50446054BD8680A
:10109000C0F30220FFF7C6FF01462046FFF7AEFF70
:1010A00010BD00BF00ED00E00138B0F1807F0BD231
:1010B0004FF0E0235861054AF02182F82310002008
:1010C000986107221A6170470120704700ED00E027
:1010D000704700002DE9F04782B005468846174664
:1010E0001E46FFF78BFB0A9B1B1A03EB0609FFF753
:1010F00085FB8246284B1B68C3F3CB3309FB03F304
:1011000001932B689C6838EA04040CBF0123002378
:10111000BB423DD0B6F1FF3FF3D0FFF76FFBA0EB32
:101120000A00484507D2019A02B14A46019B013B99
:1011300001939146E5E72A68536823F0E003536082
:101140006B68B3F5827F0BD0AB6AB3F5005F14D048
:10115000012385F85130002385F85030032018E032
:10116000AB68B3F5004F02D0B3F5806FECD12A68BD
:10117000136823F040031360E6E72A68136823F43A
:10118000005313602A68136843F400531360DFE7C9
:10119000002002B0BDE8F0870800002070B582B0E2
:1011A00006460C46154600920B4601220221FFF727
:1011B00091FF48B900952346002280213046FFF771
:1011C00089FF38B902B070BD736D43F020037365B9
:1011D0000320F7E7736D43F0200373650320F1E705
:1011E000002851D010B50446436A33B94368B3F5BB
:1011F000827F05D00023C36102E0002303614361C5
:101200000023A36294F85130002B37D0022384F8D6
:1012100051302268136823F040031360636803F4BD
:101220008273A26802F404421343E26802F400628B
:101230001343226902F002021343626902F00102C1
:101240001343A26902F400721343E26902F0380208
:101250001343226A02F080021343A26A02F400528E
:10126000216813430B60638B226803F0040353600F
:1012700000206065012384F8513010BD84F850309F
:101280002046FFF741FAC1E7012070472DE9F043FE
:1012900083B00446884691461F460A9DFFF7AEFA82
:1012A000064694F85130DBB26268012B0AD0B2F5E1
:1012B000827F40F00581A268002A40F00581042B5E
:1012C00040F00481B8F1000F00F00281B9F1000F85
:1012D00000F00081002F00F0FF8094F85030012BC7
:1012E00000F0FC80012384F8503094F85130DBB2D8
:1012F000042B02D0052384F8513000236365C4F821
:101300003890E787A787C4F83080E786A7862364EC
:10131000636423681A6812F0400F03D11A6842F020
:1013200040021A60E368B3F5006F11D063680BB137
:10133000012F0BD1226B236812781A73236B0133B0
:101340002363E38E9BB2013B9BB2E386012771E0EE
:1013500063680BB1012F0BD1226B23681288DA600E
:10136000236B02332363E38E9BB2013B9BB2E38684
:1013700001271BE023689A6812F0010F0ED0E28F5C
:1013800092B25AB1DA68A36B1A80A36B0233A363DB
:10139000E38F9BB2013B9BB2E3870127FFF72EFA55
:1013A000801BA84202D3B5F1FF3F1ED1E38E9BB252
:1013B0001BB9E38F9BB2002B62D023689A6812F0AE
:1013C000020FD7D0E28E92B2002AD3D0002FD1D014
:1013D000226B1288DA60236B02332363E38E9BB2A5
:1013E000013B9BB2E3860027C4E7012384F8513018
:1013F000002384F85030032063E023689A6812F0D9
:10140000010F0ED0E28F92B25AB1DA68A36B1A7054
:10141000A36B0133A363E38F9BB2013B9BB2E387D2
:101420000127FFF7EBF9831BAB4202D3B5F1FF3F76
:101430001ED1EDB1E38E9BB213B9E38F9BB2FBB12A
:1014400023689A6812F0020FD7D0E28E92B2002A77
:10145000D3D0002FD1D0226B12781A73236B0133B3
:101460002363E38E9BB2013B9BB2E3860027C4E774
:10147000012384F85130002384F85030032020E009
:10148000324629462046FFF789FE90B9A36833B952
:1014900001932368DA6801929B680193019B012301
:1014A00084F85130002384F85030636D4BB1012033
:1014B00007E020236365002384F85030012000E01A
:1014C000022003B0BDE8F0830220FAE70220F8E72B
:1014D0000120F6E70120F4E70120F2E70220F0E71F
:1014E000FFF7F6FD0B480C490C4A002302E0D458E4
:1014F000C4500433C4188C42F9D3094A094C002360
:1015000001E013600432A242FBD3FEF7A5FEFFF711
:1015100081F87047000000200C0000208C150008A6
:101520000C00002084000020FEE70000F8B500BF9A
:10153000F8BC08BC9E467047F8B500BFF8BC08BCB4
:041540009E4670470C
:1015440068656C6C6F21310001020304050607080D
:10155400090A0B0C0D0E0F100203040506070809F7
:101564000A0B0C0D0E0F101000000000000000000C
:08157400010203040607080947
:08157C00CCEDFF7F010000002F
:041584003902000820
:041588001102000844
:0C158C00010000001000000000127A00B6
:04000005080014E1FA
:00000001FF
