:020000040800F2
:100000000020002079170008650500086705000832
:10001000690500086B0500086D0500080000000078
:100020000000000000000000000000006F05000854
:100030007105000800000000730500087505000840
:10004000C1170008C1170008C1170008C117000830
:10005000C1170008C1170008C1170008C117000820
:10006000C1170008C1170008C1170008C117000810
:10007000C1170008C1170008C1170008C117000800
:10008000C1170008C1170008C117000800000000D0
:10009000000000000000000000000000C117000880
:1000A000C1170008C1170008C1170008C1170008D0
:1000B000C1170008C1170008C1170008C1170008C0
:1000C000C11700080000000000000000C117000870
:1000D000C1170008C1170008C1170008C1170008A0
:1000E000C1170008C1170008C11700080000000070
:1000F0000000000000000000000000000000000000
:1001000000000000000000000000000000000000EF
:100110000000000000000000C1170008C11700081F
:1001200000000000000000000000000000000000CF
:1001300000000000000000000000000000000000BF
:1001400000000000000000000000000000000000AF
:10015000000000000000000000000000000000009F
:10016000000000000000000000000000000000008F
:10017000000000000000000000000000000000007F
:10018000000000000000000000000000000000006F
:10019000000000000000000000000000000000005F
:1001A000000000000000000000000000000000004F
:1001B000000000000000000000000000000000003F
:1001C0000000000000000000000000005FF808F1DF
:1001D0000348044B834202D0034B03B118477047D6
:1001E0000C0000200C000020000000000548064B19
:1001F0001B1AD90F01EBA301491002D0034B03B125
:10020000184770470C0000200C0000200000000080
:1002100010B5064C237843B9FFF7DAFF044B13B14E
:100220000448AFF300800123237010BD0C000020B0
:1002300000000000C417000808B5044B1BB10449B6
:100240000448AFF30080BDE80840CFE7000000009D
:1002500010000020C417000870B50F4B0F4DAB42C3
:10026000A3EB050607D00024B61055F8043B013473
:100270009847A642F9D801F0A5FA094D094B5E1B33
:10028000AB424FEAA60606D0002455F8043B0134E1
:100290009847A642F9D870BD0C1800080C18000841
:1002A0000C1800081018000870B5860747D0541EB7
:1002B000002A3ED00346CAB201E0013C39D303F81C
:1002C000012B9D07F9D1032C2CD9CDB205EB0525C7
:1002D0000F2C1A4605EB054534D9A4F1100C2CF06F
:1002E0000F0603F1100EB6444FEA1C1CC2E900557C
:1002F000C2E9025510327245F8D10CF1010214F036
:100300000C0F03EB021204F00F0C13D0ACF104033A
:1003100023F003030433134442F8045B9342FBD1FC
:100320000CF003042CB1C9B21C4403F8011BA34216
:10033000FBD170BD64461346002CF4D1F9E70346A7
:100340001446C0E7A446E1E72DE9F04188B0002457
:100350000494059406940794254B9A6942F0080288
:100360009A619A6902F008020192019A9A6942F030
:1003700010029A619A6902F010020292029A9A6936
:1003800042F004029A619B6903F004030393039B08
:10039000DFF8608022464FF48051404600F08BFD2C
:1003A000154E22464FF44071304600F084FD4FF464
:1003B000805304930125059506940227079704A905
:1003C000404600F063FC4FF4407304930595069497
:1003D000079704A9304600F059FC0495059406944B
:1003E00004A9064800F052FC08B0BDE8F08100BF47
:1003F00000100240000C01400010014000080140C4
:1004000070B582B003268DF80460030A8DF80530BC
:100410008DF80600144C00224FF48051204600F065
:100420004AFD4FF47A7000F04BF9104D4FF0FF3356
:10043000324601A9284600F0CFFE4FF0FF330122DB
:100440000DF10701284601F0D3F84FF47A7000F05F
:1004500037F901224FF48051204600F02CFD9DF821
:10046000070002B070BD00BF000C01402800002052
:1004700072B6FEE708B50D480D4B03604FF482736A
:10048000436000238360C360036143614FF40072E3
:100490008261C3610362436283620A23C36200F024
:1004A00045FE00B908BDFFF7E3FF00BF28000020AC
:1004B0000038004000B591B02822002106A8FFF7BF
:1004C000F3FE002301930293039304930593022305
:1004D000069301230A9310230B9306A800F01AF940
:1004E00068B90F23019300210291039104910591B2
:1004F00001A800F041FB20B911B05DF804FBFFF743
:10050000B7FFFFF7B5FF000010B500F0BBF8FFF72D
:10051000D1FFFFF719FFFFF7ADFF104C00224FF49A
:100520008071204600F0C7FC00224FF40071204685
:1005300000F0C1FC01210A4800F0B6FC0128ECD112
:100540004FF48071204600F0BCFC4FF4007120464F
:1005500000F0B7FC0020FFF753FFDEE7001001407A
:1005600000080140FEE7FEE7FEE7FEE7FEE7704712
:100570007047704708B500F091F808BD82B00E4B87
:100580009A6942F001029A619A6902F001020092AE
:10059000009ADA6942F08052DA61DB6903F0805335
:1005A0000193019B054A536823F0E06343F0007315
:1005B000536002B0704700BF0010024000000140CD
:1005C00010B586B000230293039304930593026849
:1005D000174B9A4201D006B010BD03F5EC33DA692F
:1005E00042F48042DA61DA6902F480420092009AB1
:1005F0009A6942F008029A619B6903F0080301932B
:10060000019B4FF42043029302230393032305939A
:10061000084C02A9204600F039FB4FF480430293B6
:1006200000230393049302A9204600F02FFBD2E796
:1006300000380040000C014010B504460E4B1A78FB
:100640004FF47A73B3FBF2F30C4A1068B0FBF3F08B
:1006500000F096FC68B90F2C01D901200AE00022B5
:1006600021464FF0FF3000F07BFC054B1C60002062
:1006700000E0012010BD00BF0000002008000020A5
:100680000400002008B5032000F058FC0F20FFF7FD
:10069000D3FFFFF773FF002008BD0000034A116875
:1006A000034B1B780B441360704700BF8000002091
:1006B00000000020014B1868704700BF8000002038
:1006C00038B50446FFF7F6FF0546B4F1FF3F02D008
:1006D000044B1B781C44FFF7EDFF401BA042FAD3EC
:1006E00038BD00BF0000002082B0084B1B68084ADC
:1006F000A2FB03235B0A00FB03F3019300BF019BF2
:100700005A1E0192002BF9D102B070470800002058
:10071000D34D6210002800F0F18170B582B004461C
:10072000036813F0010F2CD0994B5B6803F00C03A6
:10073000042B1DD0964B5B6803F00C03082B12D0E2
:100740006368B3F5803F41D0002B55D103F180435E
:1007500003F504331A6822F480321A601A6822F40E
:1007600080221A6037E08A4B5B6813F4803FE7D041
:10077000874B1B6813F4003F03D06368002B00F025
:10078000BF81236813F0020F75D0814B5B6813F0B3
:100790000C0F5FD07E4B5B6803F00C03082B54D02A
:1007A0002369002B00F08A807A4B01221A60FFF740
:1007B00081FF0546764B1B6813F0020F75D1FFF7DA
:1007C00079FF401B0228F5D903209EE1704A136887
:1007D00043F480331360636843B3FFF76BFF054650
:1007E0006B4B1B6813F4003FCBD1FFF763FF401B3B
:1007F0006428F5D9032088E1B3F5A02F09D0644B14
:100800001A6822F480321A601A6822F480221A6070
:10081000E1E703F18043A3F53C331A6842F48022F8
:100820001A601A6842F480321A60D4E7FFF742FF78
:100830000546574B1B6813F4003FA2D0FFF73AFF61
:10084000401B6428F5D903205FE1514B5B6813F42A
:10085000803FA5D14E4B1B6813F0020F03D02369D4
:10086000012B40F04F814A4A136823F0F803616975
:1008700043EAC1031360236813F0080F33D0A36960
:10088000002B5CD0434B0122C3F88024FFF712FFFA
:1008900005463F4B5B6A13F0020F21D1FFF70AFFB9
:1008A000401B0228F5D903202FE1394A136823F0B1
:1008B000F803616943EAC1031360DCE7354B0022AA
:1008C0001A60FFF7F7FE0546314B1B6813F0020F65
:1008D000D1D0FFF7EFFE401B0228F5D9032014E129
:1008E0000120FFF701FF236813F0040F00F096804A
:1008F000274BDB6913F0805F34D1254BDA6942F076
:100900008052DA61DB6903F080530193019B01257A
:10091000214B1B6813F4807F26D0E368012B3DD068
:10092000002B53D103F1804303F504331A6A22F0FC
:1009300001021A621A6A22F004021A6233E0154BAD
:100940000022C3F88024FFF7B5FE0546104B5B6A12
:1009500013F0020FC7D0FFF7ADFE401B0228F5D9F8
:100960000320D2E00025D3E70B4A136843F48073D9
:100970001360FFF79FFE0646074B1B6813F4807F4A
:10098000CBD1FFF797FE801B6428F5D90320BCE08C
:100990000010024000004242007000405F4A136AAB
:1009A00043F001031362E36833B3FFF783FE0646A7
:1009B0005A4B1B6A13F0020F2FD1FFF77BFE801BEF
:1009C00041F288339842F3D903209EE0052B09D0E9
:1009D000524B1A6A22F001021A621A6A22F00402C9
:1009E0001A62E0E74D4B1A6A42F004021A621A6A70
:1009F00042F001021A62D6E7FFF75CFE0646474B5B
:100A00001B6A13F0020F08D0FFF754FE801B41F25F
:100A100088339842F3D9032077E0E5B9E369002BE6
:100A200072D03E4A526802F00C02082A56D0022BBD
:100A300017D03B4B00221A66FFF73CFE0446374BAB
:100A40001B6813F0007F47D0FFF734FE001B02281D
:100A5000F5D9032059E0314AD36923F08053D3619B
:100A6000DCE72F4B00221A66FFF724FE05462B4BCE
:100A70001B6813F0007F06D0FFF71CFE401B022806
:100A8000F5D9032041E0236AB3F5803F1AD023490A
:100A90004B6823F47413226A606A024313434B6069
:100AA0001F4B01221A66FFF705FE04461B4B1B680D
:100AB00013F0007F0ED1FFF7FDFD001B0228F5D9D2
:100AC000032022E0154AD36A23F00F03A1680B43E9
:100AD000D362DCE7002018E0002016E0012B16D0DE
:100AE0000E4B5B6803F48031226A914211D103F40A
:100AF0007013626A93420ED1002006E00120704715
:100B0000012002E0012000E0002002B070BD0120C1
:100B1000FBE70120F9E70120F7E700BF00100240E2
:100B2000000042420F4B5B6803F00C02082A01D020
:100B30000D487047C3F383420C49885C13F4803F2F
:100B40000BD0084BDB6A03F00F03094AD35C064A5B
:100B500002FB00F0B0FBF3F07047064B03FB00F024
:100B6000704700BF0010024000127A00EC17000826
:100B7000DC17000800093D0000287BD038B504468A
:100B8000036813F0020F17D013F0040F04D03B4A90
:100B9000536843F4E0635360236813F0080F04D0F4
:100BA000364A536843F460535360344A536823F021
:100BB000F003A1680B435360236813F0010F31D099
:100BC0006368012B20D0022B25D02C4A126812F02A
:100BD000020F51D029494A6822F0030213434B60A7
:100BE000FFF768FD0546254B5B6803F00C03626860
:100BF000B3EB820F16D0FFF75DFD401B41F2883347
:100C00009842F0D9032034E01C4A126812F4003FE5
:100C1000E0D101202DE0194A126812F0007FD9D1ED
:100C2000012026E0236813F0040F06D0134A53680E
:100C300023F4E063E1680B435360236813F0080F6B
:100C400007D00E4A536823F46053216943EAC10375
:100C50005360FFF767FF094B5B68C3F30313084A50
:100C6000D35CD840074B1860074B1868FFF7E4FCCB
:100C7000002038BD012070470120FAE70010024033
:100C8000FC170008080000200400002070B582B0A6
:100C90000024A446A1E07E4DAB4214D00CD8A5F5AB
:100CA0008015AB420FD005F57025AB420BD0A5F5F2
:100CB0008015AB4210D106E0764DAB4203D005F56E
:100CC0008035AB4208D18B68002B50D0012B49D026
:100CD0004261082400E0CC68BEF1FF0F49D8064607
:100CE0004FEA8C0233680F25954023EA050304FA86
:100CF00002F2134333604B6813F0805F6BD0664B96
:100D00009A6942F001029A619B6903F00103019321
:100D1000019B4FEA9C02951C604B53F825600CF038
:100D20000305AD000F23AB4026EA03065C4B984257
:100D300026D003F58063984200F08C8003F5806331
:100D4000984200F0898003F58063984216D004230E
:100D500017E0CC680434BFE7CC680834BCE7CC6843
:100D60000C34B9E702610824B6E70024B4E7042490
:100D7000B2E7061DACF108029200B3E7032300E0DE
:100D80000023AB4033430232444D45F822304B68D8
:100D900013F4801F62D0434A936843EA0E039360C2
:100DA0004B6813F4001F5FD03E4AD36843EA0E033A
:100DB000D3604B6813F4003F5CD03A4A536843EA6F
:100DC0000E0353604B6813F4803F59D0354A1368C3
:100DD00043EA0E0313600CF1010C0B6833FA0CF2BA
:100DE00054D0012202FA0CF203EA020E32EA0303A3
:100DF000F1D14B68122B3FF64EAF122B3FF66CAF82
:100E000001A555F823F000BFC70C0008D70C000857
:100E1000590D00086B0D0008D90C0008D90C00080A
:100E2000D90C0008D90C0008D90C0008D90C00080E
:100E3000D90C0008D90C0008D90C0008D90C0008FE
:100E4000D90C0008D90C0008D90C0008530D000873
:100E50005F0D0008012394E7022392E7114A93688B
:100E600023EA0E0393609BE70E4AD36823EA0E033E
:100E7000D3609EE70B4A536823EA0E035360A1E751
:100E8000084A136823EA0E031360A4E702B070BD9A
:100E9000000022100000311000100240000001404C
:100EA00000080140000401408368194201D001207C
:100EB0007047002070470AB1016170470904016161
:100EC0007047C36801EA030221EA030141EA0241D3
:100ED00001617047002808DB0901C9B200F16040D8
:100EE00000F5614080F80013704700F00F00090121
:100EF000C9B2014B1954704714ED00E000B500F081
:100F00000700C0F1070CBCF1040F28BF4FF0040C20
:100F1000031D062B0FD9C31E4FF0FF3E0EFA0CF037
:100F200021EA000199400EFA03FE22EA0E0241EA8C
:100F300002005DF804FB0023EEE70000074AD368D7
:100F400023F4E0631B041B0C000200F4E060034385
:100F500043F0BF6343F40033D360704700ED00E01B
:100F600010B50446054BD868C0F30220FFF7C6FF52
:100F700001462046FFF7AEFF10BD00BF00ED00E0C8
:100F80000138B0F1807F0BD24FF0E0235861054A61
:100F9000F02182F823100020986107221A6170471F
:100FA0000120704700ED00E0704700002DE9F04798
:100FB00082B00546884617461E46FFF77BFB0A9B14
:100FC0001B1A03EB0609FFF775FB8246284B1B68CB
:100FD000C3F3CB3309FB03F301932B689C6838EA16
:100FE00004040CBF01230023BB423DD0B6F1FF3FF8
:100FF000F3D0FFF75FFBA0EB0A00484507D2019A48
:1010000002B14A46019B013B01939146E5E72A68FC
:10101000536823F0E00353606B68B3F5827F0BD015
:10102000AB6AB3F5005F14D0012385F8513000237B
:1010300085F85030032018E0AB68B3F5004F02D0BC
:10104000B3F5806FECD12A68136823F04003136076
:10105000E6E72A68136823F4005313602A681368CC
:1010600043F400531360DFE7002002B0BDE8F087CF
:101070000800002070B582B006460C461546009266
:101080000B4601220221FFF791FF48B90095234644
:10109000002280213046FFF789FF38B902B070BDC9
:1010A000736D43F0200373650320F7E7736D43F01E
:1010B000200373650320F1E710B582B004460B46A8
:1010C0004168B1F5827F10D06168B1F5827F03D1AC
:1010D000A168B1F5806F15D00092002280212046D2
:1010E000FFF764FFE0B902B010BD8168B1F5004FB1
:1010F00002D0B1F5806FE7D12068016821F040018E
:101100000160E1E70092002201212046FFF74EFF37
:101110000028E8D0636D43F0200363650320E2E715
:10112000636D43F0200363650320DCE7002851D0A2
:1011300010B50446436A33B94368B3F5827F05D0DE
:101140000023C36102E00023036143610023A36223
:1011500094F85130002B37D0022384F851302268A4
:10116000136823F040031360636803F48273A2687A
:1011700002F404421343E26802F40062134322695A
:1011800002F002021343626902F001021343A269F2
:1011900002F400721343E26902F038021343226A38
:1011A00002F080021343A26A02F400522168134342
:1011B0000B60638B226803F00403536000206065BA
:1011C000012384F8513010BD84F850302046FFF7D9
:1011D000F7F9C1E7012070472DE9F04383B00446D9
:1011E000894690461D46FFF765FA94F85160F6B2BD
:1011F000012E40F0CC800746B9F1000F00F0C88006
:10120000B8F1000F00F0C48094F85030012B00F0CA
:10121000C380012384F85030032384F85130002325
:101220006365C4F83090A4F83480A4F83680A363D2
:10123000A387E38763642364A368B3F5004F1ED0DC
:1012400023681A6812F0400F03D11A6842F0400276
:101250001A60E368B3F5006F1CD0636813B1B8F18E
:10126000010F5FD1226B236812781A73236B01334D
:101270002363E38E9BB2013B9BB2E38652E022687C
:10128000136823F0400313602268136843F480431B
:101290001360D5E7636813B1B8F1010F15D1226B64
:1012A00023681288DA60236B02332363E38E9BB2D8
:1012B000013B9BB2E38608E0FFF7FCF9C01BA842A4
:1012C00002D3B5F1FF3F15D1A5B1E38E9BB2002B40
:1012D00042D023689A6812F0020FEDD0226B128878
:1012E000DA60236B02332363E38E9BB2013B9BB234
:1012F000E386EAE7012384F85130002384F8503074
:10130000032645E0226B12781A73236B01332363A3
:10131000B4F836C01FFA8CFC0CF1FF3C1FFA8CFCB1
:10132000A4F836C0E38E9BB2B3B123689A6812F07A
:10133000020FE7D1FFF7BEF9C01BA84202D3B5F1F7
:10134000FF3F01D1002DEDD1012384F8513000235E
:1013500084F8503003261BE03A4629462046FFF722
:1013600089FE08B120236365A36833B9019323681C
:10137000DA6801929B680193019B012384F8513044
:10138000002384F85030636D13B9002600E0022674
:10139000304603B0BDE8F0830226F9E72DE9F043BB
:1013A00083B00446884691461F460A9DFFF782F99E
:1013B000064694F85130DBB26268012B0AD0B2F5D0
:1013C000827F40F00581A268002A40F00581042B4D
:1013D00040F00481B8F1000F00F00281B9F1000F74
:1013E00000F00081002F00F0FF8094F85030012BB6
:1013F00000F0FC80012384F8503094F85130DBB2C7
:10140000042B02D0052384F8513000236365C4F80F
:101410003890E787A787C4F83080E786A7862364DB
:10142000636423681A6812F0400F03D11A6842F00F
:1014300040021A60E368B3F5006F11D063680BB126
:10144000012F0BD1226B236812781A73236B01339F
:101450002363E38E9BB2013B9BB2E386012771E0DD
:1014600063680BB1012F0BD1226B23681288DA60FD
:10147000236B02332363E38E9BB2013B9BB2E38673
:1014800001271BE023689A6812F0010F0ED0E28F4B
:1014900092B25AB1DA68A36B1A80A36B0233A363CA
:1014A000E38F9BB2013B9BB2E3870127FFF702F971
:1014B000801BA84202D3B5F1FF3F1ED1E38E9BB241
:1014C0001BB9E38F9BB2002B62D023689A6812F09D
:1014D000020FD7D0E28E92B2002AD3D0002FD1D003
:1014E000226B1288DA60236B02332363E38E9BB294
:1014F000013B9BB2E3860027C4E7012384F8513007
:10150000002384F85030032063E023689A6812F0C7
:10151000010F0ED0E28F92B25AB1DA68A36B1A7043
:10152000A36B0133A363E38F9BB2013B9BB2E387C1
:101530000127FFF7BFF8831BAB4202D3B5F1FF3F92
:101540001ED1EDB1E38E9BB213B9E38F9BB2FBB119
:1015500023689A6812F0020FD7D0E28E92B2002A66
:10156000D3D0002FD1D0226B12781A73236B0133A2
:101570002363E38E9BB2013B9BB2E3860027C4E763
:10158000012384F85130002384F85030032020E0F8
:10159000324629462046FFF76DFD90B9A36833B95E
:1015A00001932368DA6801929B680193019B0123F0
:1015B00084F85130002384F85030636D4BB1012022
:1015C00007E020236365002384F85030012000E009
:1015D000022003B0BDE8F0830220FAE70220F8E71A
:1015E0000120F6E70120F4E70120F2E70220F0E70E
:1015F0002DE9F04383B090F85160F6B2012E40F02F
:10160000B4800446894690461D464368B3F5827F00
:1016100001D1836893B3FFF74DF80746B9F1000F86
:1016200000F0A480B8F1000F00F0A08094F85030D2
:10163000012B00F09F80012384F85030042384F8AC
:10164000513000236365C4F83890A4F83C80A4F8B6
:101650003E802363A386E38623646364A368B3F5B3
:10166000004F15D023681A6812F0400F03D11A6892
:1016700042F040021A60E368F3B143E0042380F8CB
:101680005130009513460A46FFF788FE06466DE086
:101690002268136823F0400313602268136823F460
:1016A00080431360DEE7FFF705F8C01BA84202D3B2
:1016B000B5F1FF3F15D1A5B1E38F9BB2002B42D00E
:1016C00023689A6812F0010FEDD0A26B1B7B137098
:1016D000A36B0133A363E38F9BB2013B9BB2E38710
:1016E000EAE7012384F85130002384F850300326C0
:1016F0003CE0FEF7DFFFC01BA84202D3B5F1FF3F7D
:1017000019D1C5B1E38F9BB2EBB123689A6812F08F
:10171000010FEED0DA68A36B1A80A36B0233A363C8
:10172000B4F83EC01FFA8CFC0CF1FF3C1FFA8CFC95
:10173000A4F83EC0E6E7012384F85130002384F882
:101740005030032612E03A4629462046FFF7B4FC03
:1017500008B120236365012384F85130002384F805
:101760005030636D13B9002600E00226304603B006
:10177000BDE8F0830226F9E7FFF716FC0B480C4999
:101780000C4A002302E0D458C4500433C4188C42DD
:10179000F9D3094A094C002301E013600432A24244
:1017A000FBD3FEF759FDFEF7AFFE704700000020A7
:1017B0000C000020141800080C00002084000020F9
:1017C000FEE70000F8B500BFF8BC08BC9E467047B5
:0C17D000F8B500BFF8BC08BC9E4670478E
:1017DC000102030405060708090A0B0C0D0E0F1075
:1017EC0002030405060708090A0B0C0D0E0F101056
:1017FC0000000000000000000102030406070809B5
:04180C003902000895
:0418100011020008B9
:0C181400010000001000000000127A002B
:04000005080017795F
:00000001FF
